:1000000012C0189518951895189518951895189563
:100010001895189518951895189518951895189578
:100020001895189518958FE58DBFC8E3E0E24E2E20
:1000300084E08EBFD4E0F4E05F2EA89584B7082E4C
:10004000877F84BF88E1992781BD91BDEEEFF3E002
:10005000A0E6B0E088278D933197E9F766248FEF0B
:1000600081BB87E886B980E487B980E08093680027
:1000700007B1007F006007B96DD0A0E6B0E08D93B6
:100080009C9307B1007F016007B964D0A2E6B0E09D
:100090008D939C9307B1007F026007B95BD0A4E603
:1000A000B0E08D939C9307B1007F036007B952D0F5
:1000B000A6E6B0E08D939C93A0E6B0E00D911C9174
:1000C000003951E0150708F005C0A8E6B0E08C91B2
:1000D0008F5F8C93A2E6B0E00D911C91003951E046
:1000E000150708F005C0A8E6B0E08C918F5F8C93EF
:1000F000A4E6B0E00D911C91003951E0150708F01D
:1001000005C0A8E6B0E08C918F5F8C93A6E6B0E0C6
:100110000D911C91003951E0150708F005C0A8E6C3
:10012000B0E08C918F5F8C9300916800003010F0EC
:1001300009F001C002C0959A01C0959896CFF89435
:10014000FFCF3197F1F70895689462F80895E89425
:1001500062F80895369A3699FECF369A3699FECFD0
:0601600084B195B1089581
:00000001FF
